{
  "_format": "hh-sol-artifact-1",
  "contractName": "Teepee",
  "sourceName": "contracts/Teepee.sol",
  "abi": [
    {
      "anonymous": false,
      "inputs": [
        {
          "indexed": false,
          "internalType": "address",
          "name": "_from",
          "type": "address"
        },
        {
          "indexed": false,
          "internalType": "address",
          "name": "_to",
          "type": "address"
        },
        {
          "indexed": false,
          "internalType": "uint256",
          "name": "amount",
          "type": "uint256"
        }
      ],
      "name": "tipped",
      "type": "event"
    },
    {
      "inputs": [
        {
          "internalType": "address",
          "name": "",
          "type": "address"
        },
        {
          "internalType": "address",
          "name": "",
          "type": "address"
        }
      ],
      "name": "Pots",
      "outputs": [
        {
          "internalType": "uint256",
          "name": "",
          "type": "uint256"
        }
      ],
      "stateMutability": "view",
      "type": "function"
    },
    {
      "inputs": [
        {
          "internalType": "address",
          "name": "address_of",
          "type": "address"
        }
      ],
      "name": "get_balance",
      "outputs": [
        {
          "internalType": "uint256",
          "name": "",
          "type": "uint256"
        }
      ],
      "stateMutability": "view",
      "type": "function"
    },
    {
      "inputs": [
        {
          "internalType": "string",
          "name": "pot_name",
          "type": "string"
        }
      ],
      "name": "name_pot",
      "outputs": [],
      "stateMutability": "nonpayable",
      "type": "function"
    },
    {
      "inputs": [
        {
          "internalType": "address",
          "name": "",
          "type": "address"
        }
      ],
      "name": "pot_names",
      "outputs": [
        {
          "internalType": "string",
          "name": "",
          "type": "string"
        }
      ],
      "stateMutability": "view",
      "type": "function"
    },
    {
      "inputs": [
        {
          "internalType": "address",
          "name": "",
          "type": "address"
        }
      ],
      "name": "pot_total_amounts",
      "outputs": [
        {
          "internalType": "uint256",
          "name": "",
          "type": "uint256"
        }
      ],
      "stateMutability": "view",
      "type": "function"
    },
    {
      "inputs": [
        {
          "internalType": "address",
          "name": "to",
          "type": "address"
        }
      ],
      "name": "tip",
      "outputs": [],
      "stateMutability": "payable",
      "type": "function"
    },
    {
      "inputs": [],
      "name": "withdraw",
      "outputs": [],
      "stateMutability": "nonpayable",
      "type": "function"
    }
  ],
  "bytecode": "0x608060405234801561001057600080fd5b506106c0806100206000396000f3fe6080604052600436106100705760003560e01c806364fd85071161004e57806364fd850714610102578063ab568cbc14610137578063ac733ef714610157578063ef3ba8061461016a57600080fd5b80631e279a371461007557806335f3716b146100be5780633ccfd60b146100eb575b600080fd5b34801561008157600080fd5b506100ab6100903660046104b8565b6001600160a01b031660009081526002602052604090205490565b6040519081526020015b60405180910390f35b3480156100ca57600080fd5b506100de6100d93660046104b8565b610197565b6040516100b591906104da565b3480156100f757600080fd5b50610100610231565b005b34801561010e57600080fd5b506100ab61011d36600461052f565b600060208181529281526040808220909352908152205481565b34801561014357600080fd5b50610100610152366004610578565b61032d565b6101006101653660046104b8565b610351565b34801561017657600080fd5b506100ab6101853660046104b8565b60026020526000908152604090205481565b600160205260009081526040902080546101b090610629565b80601f01602080910402602001604051908101604052809291908181526020018280546101dc90610629565b80156102295780601f106101fe57610100808354040283529160200191610229565b820191906000526020600020905b81548152906001019060200180831161020c57829003601f168201915b505050505081565b3360009081526002602052604090205461028b5760405162461bcd60e51b81526020600482015260166024820152754e6f2062616c616e636520746f20776974686472617760501b60448201526064015b60405180910390fd5b604051600090339047908381818185875af1925050503d80600081146102cd576040519150601f19603f3d011682016040523d82523d6000602084013e6102d2565b606091505b50503360009081526002602052604081205590508061032a5760405162461bcd60e51b81526020600482015260146024820152732330b4b632b2103a379039b2b7321022ba3432b960611b6044820152606401610282565b50565b336000908152600160209081526040909120825161034d92840190610403565b5050565b6001600160a01b038116600090815260208181526040808320338452909152812080543492839291610384908490610664565b90915550506001600160a01b038216600090815260026020526040812080548392906103b1908490610664565b9091555050604080513381526001600160a01b03841660208201529081018290527f2a57eb7f65d46cebfb2d280410276bb9c9a701f5c9e977a96be5e4e8476203c89060600160405180910390a15050565b82805461040f90610629565b90600052602060002090601f0160209004810192826104315760008555610477565b82601f1061044a57805160ff1916838001178555610477565b82800160010185558215610477579182015b8281111561047757825182559160200191906001019061045c565b50610483929150610487565b5090565b5b808211156104835760008155600101610488565b80356001600160a01b03811681146104b357600080fd5b919050565b6000602082840312156104ca57600080fd5b6104d38261049c565b9392505050565b600060208083528351808285015260005b81811015610507578581018301518582016040015282016104eb565b81811115610519576000604083870101525b50601f01601f1916929092016040019392505050565b6000806040838503121561054257600080fd5b61054b8361049c565b91506105596020840161049c565b90509250929050565b634e487b7160e01b600052604160045260246000fd5b60006020828403121561058a57600080fd5b813567ffffffffffffffff808211156105a257600080fd5b818401915084601f8301126105b657600080fd5b8135818111156105c8576105c8610562565b604051601f8201601f19908116603f011681019083821181831017156105f0576105f0610562565b8160405282815287602084870101111561060957600080fd5b826020860160208301376000928101602001929092525095945050505050565b600181811c9082168061063d57607f821691505b6020821081141561065e57634e487b7160e01b600052602260045260246000fd5b50919050565b6000821982111561068557634e487b7160e01b600052601160045260246000fd5b50019056fea26469706673582212205ca5b213d0e6b4da333fd451f2b3ebd9909d153e6561631889cca227771f8c3b64736f6c63430008090033",
  "linkReferences": {},
  "deployedLinkReferences": {}
}