{
  "_format": "hh-sol-artifact-1",
  "contractName": "Teepee",
  "sourceName": "contracts/Teepee.sol",
  "abi": [
    {
      "anonymous": false,
      "inputs": [
        {
          "indexed": false,
          "internalType": "address",
          "name": "_from",
          "type": "address"
        },
        {
          "indexed": false,
          "internalType": "address",
          "name": "_to",
          "type": "address"
        },
        {
          "indexed": false,
          "internalType": "uint256",
          "name": "amount",
          "type": "uint256"
        }
      ],
      "name": "tipped",
      "type": "event"
    },
    {
      "inputs": [
        {
          "internalType": "address",
          "name": "",
          "type": "address"
        },
        {
          "internalType": "address",
          "name": "",
          "type": "address"
        }
      ],
      "name": "Pots",
      "outputs": [
        {
          "internalType": "uint256",
          "name": "",
          "type": "uint256"
        }
      ],
      "stateMutability": "view",
      "type": "function"
    },
    {
      "inputs": [
        {
          "internalType": "address",
          "name": "address_of",
          "type": "address"
        }
      ],
      "name": "get_balance",
      "outputs": [
        {
          "internalType": "uint256",
          "name": "",
          "type": "uint256"
        }
      ],
      "stateMutability": "view",
      "type": "function"
    },
    {
      "inputs": [
        {
          "internalType": "string",
          "name": "pot_name",
          "type": "string"
        }
      ],
      "name": "name_pot",
      "outputs": [],
      "stateMutability": "nonpayable",
      "type": "function"
    },
    {
      "inputs": [
        {
          "internalType": "address",
          "name": "",
          "type": "address"
        }
      ],
      "name": "pot_names",
      "outputs": [
        {
          "internalType": "string",
          "name": "",
          "type": "string"
        }
      ],
      "stateMutability": "view",
      "type": "function"
    },
    {
      "inputs": [
        {
          "internalType": "address",
          "name": "",
          "type": "address"
        }
      ],
      "name": "pot_total_amounts",
      "outputs": [
        {
          "internalType": "uint256",
          "name": "",
          "type": "uint256"
        }
      ],
      "stateMutability": "view",
      "type": "function"
    },
    {
      "inputs": [
        {
          "internalType": "address",
          "name": "to",
          "type": "address"
        }
      ],
      "name": "tip",
      "outputs": [],
      "stateMutability": "payable",
      "type": "function"
    },
    {
      "inputs": [],
      "name": "withdraw",
      "outputs": [],
      "stateMutability": "nonpayable",
      "type": "function"
    }
  ],
  "bytecode": "0x608060405234801561001057600080fd5b50610c53806100206000396000f3fe6080604052600436106100705760003560e01c806364fd85071161004e57806364fd850714610106578063ab568cbc14610143578063ac733ef71461016c578063ef3ba8061461018857610070565b80631e279a371461007557806335f3716b146100b25780633ccfd60b146100ef575b600080fd5b34801561008157600080fd5b5061009c600480360381019061009791906106f9565b6101c5565b6040516100a9919061073f565b60405180910390f35b3480156100be57600080fd5b506100d960048036038101906100d491906106f9565b61020e565b6040516100e691906107f3565b60405180910390f35b3480156100fb57600080fd5b506101046102ae565b005b34801561011257600080fd5b5061012d60048036038101906101289190610815565b610424565b60405161013a919061073f565b60405180910390f35b34801561014f57600080fd5b5061016a6004803603810190610165919061098a565b610449565b005b610186600480360381019061018191906106f9565b6104a0565b005b34801561019457600080fd5b506101af60048036038101906101aa91906106f9565b6105cc565b6040516101bc919061073f565b60405180910390f35b6000600260008373ffffffffffffffffffffffffffffffffffffffff1673ffffffffffffffffffffffffffffffffffffffff168152602001908152602001600020549050919050565b6001602052806000526040600020600091509050805461022d90610a02565b80601f016020809104026020016040519081016040528092919081815260200182805461025990610a02565b80156102a65780601f1061027b576101008083540402835291602001916102a6565b820191906000526020600020905b81548152906001019060200180831161028957829003601f168201915b505050505081565b6000600260003373ffffffffffffffffffffffffffffffffffffffff1673ffffffffffffffffffffffffffffffffffffffff1681526020019081526020016000205411610330576040517f08c379a000000000000000000000000000000000000000000000000000000000815260040161032790610a80565b60405180910390fd5b60003373ffffffffffffffffffffffffffffffffffffffff164760405161035690610ad1565b60006040518083038185875af1925050503d8060008114610393576040519150601f19603f3d011682016040523d82523d6000602084013e610398565b606091505b505090506000600260003373ffffffffffffffffffffffffffffffffffffffff1673ffffffffffffffffffffffffffffffffffffffff1681526020019081526020016000208190555080610421576040517f08c379a000000000000000000000000000000000000000000000000000000000815260040161041890610b32565b60405180910390fd5b50565b6000602052816000526040600020602052806000526040600020600091509150505481565b80600160003373ffffffffffffffffffffffffffffffffffffffff1673ffffffffffffffffffffffffffffffffffffffff168152602001908152602001600020908051906020019061049c9291906105e4565b5050565b6000349050806000808473ffffffffffffffffffffffffffffffffffffffff1673ffffffffffffffffffffffffffffffffffffffff16815260200190815260200160002060003373ffffffffffffffffffffffffffffffffffffffff1673ffffffffffffffffffffffffffffffffffffffff16815260200190815260200160002060008282546105309190610b81565b9250508190555080600260008473ffffffffffffffffffffffffffffffffffffffff1673ffffffffffffffffffffffffffffffffffffffff16815260200190815260200160002060008282546105869190610b81565b925050819055507f2a57eb7f65d46cebfb2d280410276bb9c9a701f5c9e977a96be5e4e8476203c83383836040516105c093929190610be6565b60405180910390a15050565b60026020528060005260406000206000915090505481565b8280546105f090610a02565b90600052602060002090601f0160209004810192826106125760008555610659565b82601f1061062b57805160ff1916838001178555610659565b82800160010185558215610659579182015b8281111561065857825182559160200191906001019061063d565b5b509050610666919061066a565b5090565b5b8082111561068357600081600090555060010161066b565b5090565b6000604051905090565b600080fd5b600080fd5b600073ffffffffffffffffffffffffffffffffffffffff82169050919050565b60006106c68261069b565b9050919050565b6106d6816106bb565b81146106e157600080fd5b50565b6000813590506106f3816106cd565b92915050565b60006020828403121561070f5761070e610691565b5b600061071d848285016106e4565b91505092915050565b6000819050919050565b61073981610726565b82525050565b60006020820190506107546000830184610730565b92915050565b600081519050919050565b600082825260208201905092915050565b60005b83811015610794578082015181840152602081019050610779565b838111156107a3576000848401525b50505050565b6000601f19601f8301169050919050565b60006107c58261075a565b6107cf8185610765565b93506107df818560208601610776565b6107e8816107a9565b840191505092915050565b6000602082019050818103600083015261080d81846107ba565b905092915050565b6000806040838503121561082c5761082b610691565b5b600061083a858286016106e4565b925050602061084b858286016106e4565b9150509250929050565b600080fd5b600080fd5b7f4e487b7100000000000000000000000000000000000000000000000000000000600052604160045260246000fd5b610897826107a9565b810181811067ffffffffffffffff821117156108b6576108b561085f565b5b80604052505050565b60006108c9610687565b90506108d5828261088e565b919050565b600067ffffffffffffffff8211156108f5576108f461085f565b5b6108fe826107a9565b9050602081019050919050565b82818337600083830152505050565b600061092d610928846108da565b6108bf565b9050828152602081018484840111156109495761094861085a565b5b61095484828561090b565b509392505050565b600082601f83011261097157610970610855565b5b813561098184826020860161091a565b91505092915050565b6000602082840312156109a05761099f610691565b5b600082013567ffffffffffffffff8111156109be576109bd610696565b5b6109ca8482850161095c565b91505092915050565b7f4e487b7100000000000000000000000000000000000000000000000000000000600052602260045260246000fd5b60006002820490506001821680610a1a57607f821691505b60208210811415610a2e57610a2d6109d3565b5b50919050565b7f4e6f2062616c616e636520746f20776974686472617700000000000000000000600082015250565b6000610a6a601683610765565b9150610a7582610a34565b602082019050919050565b60006020820190508181036000830152610a9981610a5d565b9050919050565b600081905092915050565b50565b6000610abb600083610aa0565b9150610ac682610aab565b600082019050919050565b6000610adc82610aae565b9150819050919050565b7f4661696c656420746f2073656e64204574686572000000000000000000000000600082015250565b6000610b1c601483610765565b9150610b2782610ae6565b602082019050919050565b60006020820190508181036000830152610b4b81610b0f565b9050919050565b7f4e487b7100000000000000000000000000000000000000000000000000000000600052601160045260246000fd5b6000610b8c82610726565b9150610b9783610726565b9250827fffffffffffffffffffffffffffffffffffffffffffffffffffffffffffffffff03821115610bcc57610bcb610b52565b5b828201905092915050565b610be0816106bb565b82525050565b6000606082019050610bfb6000830186610bd7565b610c086020830185610bd7565b610c156040830184610730565b94935050505056fea2646970667358221220292a1e1d4913892d876c0dc8a6a89f8c02da40ef903b72003e26581f7cc37c4064736f6c63430008090033",
  "linkReferences": {},
  "deployedLinkReferences": {}
}